:020000040000FA
:10000000604000202D90000001CA011001CA0110BB
:1000100001CA011001CA011001CA011001CA011070
:1000200001CA011001CA011001CA011001CA011060
:1000300001CA011001CA01103FCA0110000080016D
:10004000100082FFFDFF58003AFFBFF3FFFFFFFFE4
:10005000FFFFFFFFFFFFFFFFFFFFFFFFFFFFFFFFB0
:10006000FFFFFFFFFFFFFFFFFFFFFFFFFFFFFFC5DA
:10007000FFFFFFFFC5FFFFFFC5C5C5FFC5C5C5FF26
:1000800000000000FFFFFFFFFFFFFFFFFFFFFFFF7C
:04009000FFFFFFFF70
:100100003C0000000000000000000000340100007E
:1001100000000000000000000100000000000000DE
:1001200000000000000000000000000001000000CE
:100130000000000008000000000000003400000083
:100140000000000000000000680100000000000046
:10015000000000000100000000000000010000009D
:100160000000000000000000080000000000000087
:1001700030000000000000000000000098010000B6
:10018000040000000000000001000000FFFFFFFF6E
:10019000FF00000001000000080000000000000057
:1001A0002C0000000000000000000000C40100005E
:1001B000040000000000000001000000FFFFFFFF3E
:1001C000FFFFFFFF080000000000000034050000F2
:1001D000E401000099A1011095A70110A5C201102A
:1001E00009B2011045B80110000000000000000035
:1001F0002E000000280000000000000000000000A9
:10020000140200000000000000000000FFFFFFFFDC
:1002100000000000080000000000000030050000A1
:100220003002000069C201106DC101101FC201102F
:1002300095BA01100000000000000000300000002E
:10024000300500005402000075C20110A9B601106B
:100250009DBF011049B60110000000000000000021
:100260003100000024000000000000000000000039
:1002700080020000000000000000000000000000FC
:100280000800000000000000240000000000000042
:1002900000000000A40200000000000000000000B8
:1002A0000000000008000000000000002400000022
:1002B0000000000000000000C80200000000000074
:1002C0000100000000000000080000000000000025
:1002D00000000000181A00200400000000000000C8
:1002E000000000002000000070010000300000004D
:1002F0001C0200002C1A0020040000000000000076
:10030000000000000C000000300400001800000095
:1003100040020000381A0020040000000000000025
:100320000000000024000000480400001800000045
:1003300000000000401A002004000000000000003F
:100340000000000010000000A00100002C000000D0
:10035000CC010000481A002004000000000000004A
:1003600000000000200000006402000024000000E3
:10037000FFFFFFFF681A00200400000000000000DB
:100380000000000028000000880200002400000097
:10039000FFFFFFFF781A00200400000000000000AB
:1003A00000000000580000003C0100003400000084
:1003B000FFFFFFFF801A0020040000000000000083
:1003C00000000000100000006004000018000000A1
:1003D000FFFFFFFF881A002004000000000000005B
:1003E000000000001C000000AC020000240000001F
:1003F000FFFFFFFF901A0020040000000000000033
:100400000000000038000000F40100002800000097
:10041000FFFFFFFF981A002004000000000000000A
:100420000000000054000000000100003C0000003B
:100430001800000000000000000000004004000060
:10044000080000000000000018000000000000008C
:100450000000000058040000080000000000000038
:100460001800000000000000000000007004000000
:10047000080000000000000002000000D8C40000D6
:100484000100000000000C0000000D00320000001C
:100494000200000010230020000200000000000001
:1004A40001CA011000000000000000000800000064
:1004B400000020001022002001000000501A00203B
:1004C4000800000000000000000000000000000020
:1004D4000000000000000000010000007023002064
:1004E4000600000001000000302100200000000090
:0C04F400000000000002000000000000FA
:0F0502002A0001002500300031002E0001000109
:1005140003000000C4C4000000000000000000004C
:10052400000001000000030087C40110380500002A
:10053400380500000000000080000000800000007A
:1005440000000000501A002033B700002000000013
:100554005CC4000068C200000DC301109B78000059
:10056400F37A000099C801109BC801100000000034
:1005740024C5000070BF000088BF000058BF000001
:090584000800090001000000015B
:10059000000000000000000000000000000000005B
:1005A000BDB400000D95000011AD00008191000068
:1005B000757C0000BD9F0000596600005DB0000022
:1005C0006D80000011C8011021C801100800000052
:1005D0002400000018000000280000002000000097
:1005E0003C0000000C000000340000002DE9F04F3A
:1005F000ADF1740D06F034FDDB4C04F12C0004F178
:10060000980105F0FDFDDFF86493E06049460BF0CA
:10061000EBF901260821DFF89883ADF86010D8F8CF
:100620000000ADF86260014618A88847BDF8640074
:1006300060801A98A06004F138000BF05BF9002587
:100640004FF0040A04F1B4074FF47A72E3492061D1
:100650002B4600953846CDF804A007F03FFE1F203A
:10066000314609F04DFD30468DF808004FF44876CC
:10067000ADF80A5001218DF80C500820ADF80E009D
:1006800002AAADF810602846ADF812006420ADF85B
:10069000140040F2053001F043FD40F20630022123
:1006A0000DF10A0201F03CFD4FF442701A2104F1F1
:1006B000610201F035FD4FF44470012103AA01F0FD
:1006C0002FFD1B9740F2113002210DF10E0201F0B7
:1006D00027FD40F21230022104AA01F021FD40F270
:1006E000133002210DF1120201F01AFD4FF4457092
:1006F000022105AA01F014FDDC4D0020152105F1B1
:100700004A020AF049FF04F120000BF023F90AF035
:100710006FFBA07820210AF00DFC0620314609F07D
:10072000EFFC0720314609F0EBFC0820314609F0C8
:10073000E7FC0920314609F0E3FC4FF0FF300BF0F5
:1007400031FA4FF0FF300BF02AFA0AF01BFF05F1E7
:1007500015020120102102F0FBFF022009212A4688
:1007600002F0F6FF052009212A4602F0F1FF05F10B
:1007700037020320132102F0EBFF05F10902504676
:100780000C2102F0E5FF05F125020620122102F0FE
:10079000DFFF7F2004F00EFF7F2814BF0A200F2008
:1007A000052108F0F3F908F0FBFB002852D108F00E
:1007B00039FA5FEA00094DD0002528464FF48051F0
:1007C00007F0F8F905F58055E80CF6D000263AE078
:1007D00006F500304FF4805107F0ECF95FEA0009AC
:1007E0002FD004F5947B37460025584639464FF400
:1007F000807205F03FFBA81900F5003A4FF48071B4
:100800005A46504606F0BAFB5FEA000913D050463C
:100810004FF480715A4608F004F8B8789BF802103B
:100820004FF00009884206D1F8789BF803108842FF
:1008300008BF4FF0010905F5807507F58077280B93
:10084000D3D006F58056700C08BFB9F1010FBFD0A8
:1008500008F00EFC07F07EF905F0BEFA0AF0CEFFB4
:100860000AF0B4FA07F0B0F80AF0E6FE07F042F931
:1008700004F124000AF0BAFF04F144000BF03AF846
:10088000A06104F11C0009F021FC00200AF033F8FB
:10089000E06836490BF0A8F802F0ACFB1C21CEA0B2
:1008A0000A4609F0AFF8CB484FF000094FF0050BAE
:1008B00004F17B0144F6206200681C91B2FBF0FA5F
:1008C00008200A21ADF858004FF0FF36ADF85A1055
:1008D000D8F80070179616A839468847002840F0C7
:1008E00026814846082106900926ADF84810D8F818
:1008F0000070ADF84A6012A839468847149D002858
:10090000069540F00881BDF84C0010281BD1608886
:10091000BDF84E10884216D1284602884FF6FF7364
:10092000811C934207D00178B0290CD1017908309D
:100930000AF02CFC07E00888800904D36069401C99
:10094000606102F057FB0698002800F0E480082060
:10095000ADF840000321ADF84210D8F800701195B1
:1009600010A839468847D6E02005002095B300003E
:1009700020690AF03FFB071C00F0CD803E78781C10
:10098000761E2DD0761E40F0BB800078B978401ED0
:1009900020D0401E1AD0801E14D0401E0ED0801EC3
:1009A00008D0801E40F0AC80084607F011FFA7E099
:1009B00004190020084604F041FDA1E0084605F0B6
:1009C00013FF9DE0084604F079FC99E0084603F027
:1009D00057F895E0084605F0C5FE91E04DB60000D9
:1009E0000678701E4FD0401E20D0801E01283FD9AF
:1009F000801E02D0801E29D081E01B980AF00EFFD5
:100A000010B91B980BF011F9E0680A214A4609F069
:100A100031F9E0680F214A4609F02CF9E068152108
:100A20004A4609F027F906F0C1FB68E01B980AF076
:100A3000F5FE10B91B980BF0F8F81C9A84F8949006
:100A400040F207301C2101F06BFB58E00AF0FCF883
:100A50000AF0AAF909F0BEFF06F084FD07F06AFD6E
:100A6000E0680A21012209F005F948E058BE0000BB
:100A70000AF0EAF80AF098F909F0ACFF06F072FD06
:100A800007F058FD3BE04D4611E0E0680F210122E0
:100A900009F0F0F850460BF07DF9E0680F214A4666
:100AA00009F0E8F850460BF075F96D1CEDB2052D14
:100AB000EBDB4FF441700EA902F0E2FB9DF83950D8
:100AC0008DF831508DF834909DF83C108DF83390AE
:100AD0009DF83D208DF836109DF838008DF83720B0
:100AE0009DF83A308DF830009DF83B508DF832304B
:100AF00008210CAA48468DF8355002F029FE2670D0
:100B00000820ADF82800ADF82AB0D8F800600B979F
:100B100031460AA8884720690BF038F900283FF4CD
:100B200027AF03F033F90AF07BF802F09DFEA188AD
:100B30002078CA082AD321F004010628A18018BF12
:100B4000022803D11B980BF070F82078062805D1F5
:100B5000484649464A4609F065FD2078022815D1E5
:100B60004D4611E0E0680F21012209F083F850465C
:100B70000BF010F9E0680F214A4609F07BF8504667
:100B80000BF008F96D1CEDB2002DEBD0A0690BF055
:100B9000FDF800287FF494AEA0690BF0F3F8054649
:100BA000287A012806D0022808D16889E96802F06D
:100BB000C5FA03E06889E96803F032FE0820ADF861
:100BC0002000ADF822B0D8F800700995394608A881
:100BD0008847DBE710C500005365742061647665C3
:100BE0007274206461746120746F20656464797329
:100BF000746F6E654164762C2073697A653D256457
:100C00002C20636865636B3D25640D0A00002DE9A7
:100C1000F04F064640F29421012541F22D00ADF13E
:100C20000C0DC4F22231C4F2090040F81D5C0868C2
:100C30000028FCD043F6AC7E46F2440AC020C5F240
:100C4000000EC4F20C0AF4464AF8440CDEF8089090
:100C5000DCF8041046F25620C4F20800890807D2D6
:100C600071460A686FF00F0E4EEA1241017001E002
:100C70007221017041F28C38C5F2000858F8D41C7A
:100C8000C1F304611629A8BF203962469268121781
:100C90005118491C11F10A0FB8BF6FF00901002368
:100CA0002C4625EAD96201F01F01C4F2203341F439
:100CB000F851018324EA996E1A60002EC3F808E007
:100CC00073D058F83C1CC1F38360C1F38F275FEAEF
:100CD000994167D249F3072CBCF1000F29D549F39C
:100CE00007214A42B1F1FF3F4FEA620215DA7F085D
:100CF00005D1400806BF281C2F1C4FF6FF777F0840
:100D00000CF1010C05D1400806BF281C2F1C4FF622
:100D1000FF77521E0CF1010CE9D1490809D37F0875
:100D200005D1400806BF281C2F1C4FF6FF770CF199
:100D3000010CBCF1000F35DDBCF1020F4FEA6C0273
:100D40000CF001031DDB4FF6FF717F0047F0010738
:100D5000B94207D2400040F001000F2892BF2F1C7B
:100D60000F200F1C7F0047F00107B94207D2400057
:100D700040F001000F2892BF2F1C0F200F1C521EA5
:100D8000E3D1002B0EDD7F004FF6FF7147F0010726
:100D9000B94207D2400040F001000F2892BF2F1C3B
:100DA0000F200F1C47EA004703E040F6FF77C0F230
:100DB0000F070AF00DFE39460022002808BF2A1C42
:100DC00048F20007C4F20C0738680028FCD04AF249
:100DD0000800C4F20C0001613D600AB10AF0FEFD9A
:100DE000002E08BFD82109D058F83C1C58F83C0CFC
:100DF000C1F3870100F0030041EA002188B20090AE
:100E000040F2FF3200232C214AF20000C4F20C0011
:100E100007F0E7FA002E1ABF58F8100CC0F30D0BBC
:100E200040F2FF3B0AF0D4FD0021002808BF291C36
:100E300038680028FCD04AF20800C4F20C00C0F860
:100E400014B03D6009B10AF0C9FD002E04BF4FF097
:100E5000000BC6F6880B0DD058F818BC0BF07C427E
:100E60000BF47C010BF47C4011430BF0FC0B0843AA
:100E70004BEA000B0AF0ACFD0021002808BF291C3A
:100E800038680028FCD04AF20800C4F20C00C0F810
:100E90000CB03D6009B10AF0A1FD002E04BF47F27D
:100EA0008A6BC0F2680B0DD058F81CBC0BF47C02A6
:100EB0000BF47C410BF4707011430BF03F0B0843B3
:100EC0004BEA000B0AF084FD0021002808BF291C12
:100ED00038680028FCD04AF20800C4F20C00C0F8C0
:100EE00008B03D6009B10AF079FD002E3AD058F8FB
:100EF000140C43F6AC71C5F200014B68C0F3035209
:100F00005B08C0F3034117D243F6AC73C5F200038C
:100F10001B6843F3032C12EB0C0203D4102A02DBF0
:100F20000F2200E0002243F30333C91803D4102931
:100F300002DB0F2100E0002141EA021100F47F42B0
:100F400000F0F00E0B0400F00F0B222E42EA030219
:100F50004EEA02014BEA010B08D300F0804040EA60
:100F60000B0B03E043F6277BC0F2710B0AF030FD58
:100F70000021002808BF291C38680028FCD04AF24C
:100F80000800C4F20C00C0F804B03D6009B10AF0DA
:100F900025FD222E26BFD8F80000C0F30070281CC3
:100FA0004AF2400BC4F20C0B222E4FEA400040F0F4
:100FB00020008BF8090126BFD8F80000C0F340706C
:100FC000281C202E40F010008BF809013CBF0020A7
:100FD00001900CD3D8F80C00C20C02F44072800DC2
:100FE00000F01C0100F003001143084301900AF0D7
:100FF000EFFC019A0021002808BF291C386800284E
:10100000FCD04AF20800C4F20C0002623D6009B153
:101010000AF0E4FC202E26BFD8F80C00C0F30150E3
:101020000020222E4FEA400040F060008BF80C01B7
:1010300026BFD8F80000C0F3C06100216FF07F0028
:10104000222E40EAC1008BF8010126BFD8F800002B
:10105000C0F3455100214FF60040202ECFF6FF701F
:1010600040EA8100ABF89C0105D248F20000C4F2CE
:101070003F0001900BE0D8F80C000003820D00F453
:101080007C11920500F470401143084301900AF06E
:101090009FFC019A0021002808BF291C38680028FD
:1010A000FCD04AF20800C4F20C0002603D6009B1B5
:1010B0000AF094FC44204FF0880E8BF8C500002EF7
:1010C0008BF8C7E01ABFD8F80000C0F3C141002177
:1010D00040F68406C9F3815041F03001C4F28C36E9
:1010E00000288BF8C81041D0401E07D0401E37D0D2
:1010F0000420022107F043FB00214BE0284609F0C1
:101100001BFE04460420214607F039FB042009F0A9
:1011100013FE8442FAD143F6AC70C5F2000050F8D9
:10112000040C0104090C4AF8081CC0F3074E4AF8E5
:1011300004ECCAF8005031680029FCD0002240F2CB
:10114000B411CAF80020C1F2000109680B68000E52
:101150004FF06022072198474FF48060CBF80000E1
:101160000420032107F00BFB002113E00420294693
:1011700007F005FB43F2BD704AF8080C4FF08609F2
:101180004AF8049CCAF8005030680028FCD00021BE
:10119000CAF8001058F8200C4BF2700342F22C0EE3
:1011A00041F22D0C47F6180240F29449C4F20C03A8
:1011B00000F03F00C4F2090E8BF8CB0FC4F2090C0B
:1011C0001A80DEF800004AF8441CC4F260294CF88A
:1011D0001D1C03B0C9F80050BDE8F08F2DE9F04F99
:1011E0000820ADF1740DDFF828B3ADF83800012008
:1011F000ADF83A00DBF8000001460EA88847C54C60
:10120000BDF83C002082002666701098A0624FF660
:10121000FF70E08208F00EFEB046C44D20703246EA
:1012200033460120CDF800802946019004F1A80042
:10123000139007F053F80220CDF800803246334671
:101240002946019004F1CC00129007F047F80420E1
:10125000CDF80080324633462946019004F1F00073
:10126000119007F03BF804F14A090420102231469E
:10127000A070484605F073FC04F15A0A102250464B
:10128000314605F06CFC04F12C073E6004F10A05C0
:101290002E70072060721021E6714A4626720220E5
:1012A00008F0E4FD03201021524608F0DFFD042081
:1012B0003A46014608F0DAFD13981490CDF858909C
:1012C000CDF85CA04FF003081A9705F13A0013908F
:1012D00005F17F00159005F12E00189005F16000D2
:1012E000199034351B950AE06078062818BF072846
:1012F00005D1208AE18A1322C0B208F0A3F90820A0
:101300000A21ADF830004FF0FF35ADF83210DBF8B0
:1013100000700D950CA839468847002840F0698177
:101320003046082102900925ADF82010DBF8007046
:10133000ADF8225008A839468847DDF828A00028D3
:10134000CDF808A040F05581BDF82410208A10295E
:1013500040F04181BDF82610884240F03C8155465E
:101360002A884FF6FF73A91C934200F02C81514646
:101370000F78A23F00F008812E3F40F02C81897841
:10138000B146002900F0D480891E00F0A880491ED3
:1013900001297CD9891E4CD0491E23D0491E03D077
:1013A000083900F0E280E4E011980AF040FC02986D
:1013B0004778002F40F0DD80C18821840189618455
:1013C0004089A08412980AF029FA002840F0D180C0
:1013D000676B002F00F0CD803B68208C618CA28C65
:1013E0009847F8E0A88809F070FA13984946062251
:1013F00005F0B5FB26846684A684A87960731298EC
:101400000AF015FC11980AF012FC4FF001094FF692
:10141000FF702779E0824FB9A879082814BF04200B
:1014200005206070484609F0D9FFA2E084F80180E9
:101430009FE06F78E37A27BB291D0A681398026042
:1014400089888180062767706889E082E88920841E
:10145000288A6084688AA084E878012B207308D1E8
:101460001F2008F0D1F84FF47A714143129808F028
:1014700039FCE8786A892D1D0423294607F0FAF91A
:101480007AE0687831286ED1E670042023E06F7826
:10149000002F68D1A878A78A6178032812D0E07855
:1014A000257927B9012814BF2671E67006E00543A7
:1014B00004D01498394608F015FC61780729E4D166
:1014C000062008E0062908D0E778002F08BF84F836
:1014D000018051D0022060704EE00720FBE76B785E
:1014E0006F1C002B3FD1ED78A279ADB9607802284E
:1014F00018D0072816D0062802D12079012811D14A
:1015000014980AF08BF968B9012009F067FF09E027
:10151000041900200C0E0020159BC0B2494607F0AC
:101520008BFC38703F78F7B923E0C046DDB300008C
:101530006F78C7B9169A0220102108F0B3FC179AE9
:101540004046102108F0AEFCED1C29681898AF88C1
:1015500001600125878029466279199B207C65708E
:1015600007F06AFC40B10820B5E7A88805210AF019
:10157000FDF9B9F1010F2ED1276B002F2BD03F6859
:101580004FB36078B84726E06879132823D12889BB
:10159000012810D1A07B02280DD111980AF047FB39
:1015A0006078062818BF072815D1207CE18A13220D
:1015B00008F048F80FE0052008F026F801461198D9
:1015C00008F090FB07E00888C00B04D31A9A0420A7
:1015D000014608F067FC029FDBF800004FB10821CC
:1015E000ADF81810ADF81A80CDF81CA0014606A879
:1015F0008847608A2779E17842082ED320F00100DD
:1016000057EA0105608228D0234802886FB9E17942
:10161000207A8DF80C101B9F8DF80D003B680DF1A2
:101620000E052B60B988A98001E08DF80C80607AE6
:101630008DF81400A17A8DF81510D0B203A90AF024
:101640008FF948B10820276B60702FB13D681DB13C
:101650003868014608208847608A810806D320F050
:1016600002006082304605F0D7FD608AC108FFF4B1
:1016700046AE20F00400A77B60827F1E03D07F1E51
:101680003FF432AE3BE601200090618BA28BE38BEE
:10169000208B06F047FD32E61C0E00202DE9F04FAE
:1016A000044609AF10461E46ADF13C0D00280094DB
:1016B0003A8801900D46ADF8302008BF002000F0B8
:1016C00001824FF0000B471CCDF838B0ECE1252C1F
:1016D00040F0D78139787F1C01972D291CBF0E98C7
:1016E000ADF81E0005D10121781CADF81E10397827
:1016F0000190302918BF0E9805D101990A460120A2
:10170000521C097801920E9A2A2984464FF0FF3420
:10171000069224D12346326808930199CDF828C057
:10172000D21C0B4622F00302121D5B1C326052F8E1
:10173000042C09780193002A069218D50123ADF8EC
:101740001E305242069212E0069F019A7B0003EB84
:10175000C703CB18571C303B0197117806933029EB
:1017600001DB3A29F0DBCDF828C0224608922E2969
:101770002BD1019A11780E9B2A2902F101020192C4
:1017800010D131680893C91C21F00301091D316093
:1017900051F8044C002C48BF1C1C1178521C2346E5
:1017A000019211E01C460BE0019A630003EBC404B4
:1017B00009191346A1F130045B1C117801932346EB
:1017C000302901DB3A29EFDB089308B106980A902B
:1017D0006C2905D04C291CBF0E9AADF81C2007D1EE
:1017E000019901230A46ADF81C30521C0978019278
:1017F0000DF1180C02AFCDF82CC00E9A0D9764298C
:10180000099200F0AE80692900F0AB80BDF830305D
:10181000752979D0782975D06F2971D070294AD06F
:1018200063293AD073291CD0019F012DA7F101072C
:10183000019714D9A7480068B4F1FF3F04D0A5422E
:1018400084BF641C089400D80895844601A93246D8
:1018500006AB6846E047014609988B44BBE010465A
:10186000BAE03068019FC01C20F00300001D30600A
:1018700050F8040C002B7F1C014608B993A00146C8
:101880000D9109F00BFF0990B4F1FF3F00F0A58026
:10189000A042C4BF201C09909FE03068C01C20F00B
:1018A0000300001D306010F8041C8DF8081001279B
:1018B000099738468FE0082130680A91C01C20F053
:1018C0000300001D306050F8047C144606A8824ACC
:1018D00007F00F01515C3F0904F1010400F8011DFC
:1018E000F5D1082C06DAC4F108043021641E00F892
:1018F000011DFAD14021441E00F8011C604667E03A
:10190000082102E0102100E00A213268D21C22F0F6
:101910000302121D326052F8048CA042BCBF201C8E
:101920000A900E9C06AF8A4681464046514607F013
:101930002DFD6948405CB8FBFAF8B8F1000F04F1DE
:10194000010407F8010DF0D1A14506DDA9EB040063
:101950003021401E07F8011DFAD10B980D97C01BCE
:1019600038E03168C91C21F00301091D316051F8CC
:10197000041CA042BCBF201C0A9006AC81460F4646
:10198000002958BF924604D57F42A0F101094FF0CB
:101990002D0A904638460A2107F0F8FC4E48405C74
:1019A0000A23B7FBF3F7002F08F1010804F8010D33
:1019B000F0D1C14506DDA9EB08003021401E04F836
:1019C000011DFAD1BAF1000F18BF04F801AD0B9850
:1019D0000D94001B0990019F7F1CBDF81E400699C5
:1019E000091A0691BCB911E0012D0DD900986D1EA0
:1019F00030B909F053FF38B1202009F047FF03E068
:101A000020210170441C00940BF1010B0698401E2C
:101A10000690E9D509980446401E0990D4B9BDF84E
:101A20001E00002840D00698401E06903CD4012D90
:101A30000DD900986D1E30B909F030FF38B1202063
:101A400009F024FF03E020210170441C00940BF1F5
:101A5000010BE8E70D994A1C0D920C78012D0DD968
:101A6000009B6D1E3BB909F019FF10B1204609F02B
:101A70000DFF099802E01C705B1C00930BF1010B39
:101A8000C9E7012D07F101070CD900986D1E30B987
:101A900009F004FF30B1204609F0F8FE02E00470BE
:101AA000401C00900BF1010B17F8014C0198002C21
:101AB00000F1010001907FF40AAE009808B10E9980
:101AC000017058460FB0BDE8F08FC046286E756CA7
:101AD0006C2900C01CC5000070C400002DE9F84F3F
:101AE000C64DC74ED5F8EF1FCC4C7368D5F8F30F31
:101AF0008843C5F8F30F002BC5F8FF1F00F01181D4
:101B00007788012B00F0D680DFF8FCB2BF4FDFF8FA
:101B100000A3DFF80093DFF80083022B72D0032BC1
:101B200040F06A810024B06855F8312C74600028B8
:101B3000A2F5C062B8BF404211460029B8BF494271
:101B400088422EDA111C54BF02206FF00100B269E6
:101B500000EB4100032190FBF1F18918B161F368BA
:101B6000706998420BD0B1F11002B8BF524230698F
:101B70001038B8BF40428242B8BF88B209DB98B281
:101B80000090A04830214FF47F42082306F029FC42
:101B9000308A00909B4804214FF4F802122306F08B
:101BA00020FC5846046001688908FCD204600126C4
:101BB00044600E203E6003F0EDF950460468EFF3F8
:101BC000118584F3118849460820B0FA80F00A1A7A
:101BD000D07F431E0128D37704D14246106820F0FD
:101BE0000800106085F31188EFF3118384F31188E6
:101BF0000420B0FA80F0091AC87F421E0128CA7773
:101C000054D14EE055F8310CB0F5C06F17D0032712
:101C1000776001F0B9FF45F8397C0027276020681C
:101C20008008FCD27748394660220523009106F0EF
:101C3000D8FB0126266020688008FCD364E00021E0
:101C400071605846016002689208FCD2016001266A
:101C500041600E203E6003F09DF950460468EFF3AA
:101C6000118584F3118849460820B0FA80F00A1AD9
:101C7000D07F431E0128D37704D14246106820F05C
:101C80000800106085F31188EFF3118384F3118845
:101C90000420B0FA80F0091AC87F421E0128CA77D2
:101CA00004D14246106820F00400106083F31188CC
:101CB000BDE8F88F55F8312C02214BF2F520716008
:101CC0005043000A37B95649096821F07F4140184E
:101CD000400801E0002171806060000CA0600126D6
:101CE000E660032745F8397C0027276020688008D4
:101CF000FCD24448394660220523009106F071FB6E
:101D0000266020688008FCD345F8216C45F8397CB2
:101D10000820C5F8FF0FC5F8F30F45F8396CBDE88A
:101D2000F88F40480068006801462020884741F647
:101D30001D574FF002080F2045F82D0C00214FF4DD
:101D4000C072072345F8297C2E48CDF8008006F0A4
:101D500048FB012744F8047C54F8040C8008FBD3AA
:101D6000308845F81D7C012821D0032045F8390C26
:101D70004FF00009C4F8009020688008FCD2214888
:101D8000494660220523009106F02BFB276020685E
:101D90008008FCD345F8217C45F8399C0820C5F81B
:101DA000FF0FC5F8F30F45F8397C474623E04FF0A5
:101DB0000009C4F80C90032045F8390CC4F80090D1
:101DC00020688008FCD20F48CDF800804946602288
:101DD000052306F006FB276020688008FCD320203E
:101DE00045F8210C45F8399C0824C5F8FF4FC5F883
:101DF000F34F45F8397C7760BDE8F88F39400C40E7
:101E0000EC23002000A00C4034600C4004800C4007
:101E10000CC50000FF190020F81E002038600C409F
:101E200010200940A00100102DE9F04F8146B9F1C2
:101E3000010FADF11C0D40F05781AD480068EFF384
:101E4000118280F31188DFF8CCB29BF804000128DE
:101E500018BF012003D1022100208BF8041082F367
:101E60001188012800F03E8109F088FF0390AA48FC
:101E7000046804EB0B0009F089FF4FF000084646A8
:101E800037460BEB0401CDF810800191B0B90C4638
:101E9000084609F06FFF0546A868400808D3E868BF
:101EA0002969024601209047C0B2012800F0128142
:101EB000284609F05BFF0546AC42EDD1002F40F00B
:101EC0000D8109F04FFF029005978A4807600120B5
:101ED00008F032FF012804D1404607F0D7FA4FF04E
:101EE0000108854F38688068014630468847874832
:101EF00019300090D0F8FF0FB9F1010F40F08C803D
:101F0000864C0A34E57905B10126A5790DB146F074
:101F1000020665790DB146F00406DFF8E0916578B8
:101F20002DB1B86A006B49460246C88D90472578A6
:101F30002DB1B86A006B49460246488D90477049FA
:101F400001200860B86A8069014646F02000884791
:101F50006C4DDBF80010286840F00100286048084C
:101F600013D2694809F0BFFC8246BAF1040FF8D0D9
:101F7000D5F8180220F00300C5F81802B86C4068C4
:101F8000024661480321904701E001200490059832
:101F900000F00AFBB86A0099806BD1F8FF1F8047F8
:101FA000049858B9B86C4068024657485146904763
:101FB000D5F8180240F00300C5F8180238688068A8
:101FC000014601208847514801688909FCD3B8F1CE
:101FD000010F02D1012007F059FAB86A40690146A1
:101FE00030468847B86A406B01463046884701282A
:101FF000F8D166782EB1B86AC06A49460246C88DE3
:10200000904726782EB1B86AC06A49460246488D84
:1020100090473B49012008603A480168032221F0BB
:102020000101016001988BF8042009F0AFFE00283F
:10203000059818BF01200125C8B9019C204609F068
:1020400099FE0646B068C00807D3F06831690246B9
:1020500004209047C0B2012806D0304609F086FE21
:102060000646B442EED102E0294800688047214884
:10207000009F0560D7F8FF0F09F0B0FC019809F048
:1020800085FE059FD0B9019C204609F073FE0646E7
:10209000B068000907D3F06831690246082090470C
:1020A000C0B2012806D0304609F060FE0646B442B0
:1020B000EED103E0164800688047022702988BF8AB
:1020C000045009F04BFE05F0E3FC039809F042FED2
:1020D00038460AE00E4800688047022701208BF846
:1020E0000400F2E7062000E0022007B0BDE8F08F10
:1020F0000CC500000C400940900100100CBF00000E
:10210000282008600C2008400040034014100940BB
:1021100000C50000F81E0020FCC40000EC190020DF
:1021200003462DE9F041A248A04DA3F2013C00274F
:1021300014460E46BCF11A0F1CD8DFE81CF02A0129
:1021400025011E011B00FA00F400DD00CC00C500D3
:10215000BE00B600AE00A6001B001B009D00900054
:10216000820078006B001B001B001B001B0052004C
:102170001B002600272B06DA022E04D121881846E0
:1021800007F0BEFFCDE002270DE1012E40F00381F4
:102190002846C178012900F0EE800279217801718A
:1021A00082B9002900F0FF804078012800F0D48037
:1021B000042800F0D180062800F0CE80052800F029
:1021C000CB80F0E02178002940F0ED8041780329B0
:1021D00000F0CD80072900F0CA80052940F0E38097
:1021E000C5E0012E40F0D7802078012840F0D38050
:1021F00005F1F00009F012FB50B9384605F00CF873
:10220000071C40F0D0802846CC3009F010FDCAE011
:102210001627C8E0022E40F0BE8021880A29C0F2AD
:10222000BA80B1F5486F00F3B6801E3015E0022E7B
:1022300040F0B1802188B1F5FA7F80F2AC801C308B
:102240000BE0022E40F0A78021880629C0F2A3806F
:10225000B1F5486F00F39F801A300180A3E0022E91
:1022600040F0998021880629C0F29580B1F5486F29
:1022700000F391801830F0E7012E40F08C80217837
:10228000022980F288800B300DE0012E40F083801F
:10229000217804297FDA0A3005E0012E7BD12178EC
:1022A000082978DA093001707DE0062E73D12168A3
:1022B0003E300160A688868075E0012E6BD12178C2
:1022C000042968DA0830EEE7012E64D12178042968
:1022D00061DCC01DE7E7202E5DDA05F1890839468B
:1022E0001F22404604F03BFC21463246404603F0A4
:1022F000C1FDAE7139460FE0202E4CDA05F16A08B7
:1023000039461F22404604F02AFC21463246404608
:1023100003F0B0FD6E710121287C3246434606F081
:102320008BFD07463FE0022E35D121882846143028
:1023300093E7012E2FD12846017901291BD0C278BD
:102340002178C17062B900292DD04078012803D0CE
:10235000042818BF052826D1012009F03FF822E003
:10236000217801BB4178022918BF05291BD1007CC7
:1023700009F0ECF917E0122715E0042E0BD12168C3
:1023800028462C3001600EE0102E04D128465A3029
:1023900005E0102E01D0182705E028464A301146E6
:1023A000102203F067FD3846BDE8F0810C0E0020D6
:1023B0000C0E00202DE9F0411C4615468C4208BF4A
:1023C000854282BF00230022E5E0002C08BF002DDB
:1023D0000AD100290EBF00286FF000006FF0000145
:1023E00000F0E1F8BDE8F0815FF000085FF0000E5A
:1023F000002C08BF8D429CBF2C1C0025070C47EA0F
:1024000001470E0CB44208BFBD429EBF5FEA0444C0
:1024100044EA15445FEA0545070A47EA01670E0AE0
:10242000B44208BFBD429EBF5FEA042444EA15647B
:102430005FEA0525470847EAC1774E08B44208BF5E
:10244000BD4200F29380870847EA81778E08B44244
:1024500008BFBD427CD8C70847EA4177CE08B442DE
:1024600008BFBD4266D8070947EA01770E09B442A2
:1024700008BFBD4250D8470947EAC1674E09B44278
:1024800008BFBD423AD8870947EA81678E09B4423E
:1024900008BFBD4224D8C70947EA4167CE09B44204
:1024A00008BFBD420DD8E60146EA5566EF01B142CC
:1024B00008BFB84201D3C01BB14158EB08085EEB1E
:1024C0000E0EA60146EA95664FEA8517B14208BF8F
:1024D000B84201D3C01BB14158EB08084EEB0E0EB9
:1024E000660146EAD5666F01B14208BFB84201D322
:1024F000C01BB14158EB08084EEB0E0E260146EA10
:1025000015762F01B14208BFB84201D3C01BB141BB
:1025100058EB08085EEB0E0EE60046EA5576EF0033
:10252000B14208BFB84201D3C01BB14158EB080803
:102530004EEB0E0EA60046EA9576AF00B14208BFFC
:10254000B84201D3C01BB14158EB08084EEB0E0E48
:10255000660046EAD5766F00B14208BFB84201D3A3
:10256000C01BB14158EB08085EEB0E0EA14208BF3C
:10257000A84201D3401BA14158EB08085EEB0E0EA8
:10258000A34208BFAA423EBF2D0A45EA0465240AB9
:1025900089D3734642461E4617460B4602463146CD
:1025A0003846BDE8F0817047F8B504460020C4F213
:1025B00009000068800880F0BB8008F070F942F2E2
:1025C0002421C4F208010A68002112F0030F18BF89
:1025D0000121D20828BF41F00201002C18BF41F0B0
:1025E000040143F64856C2F2000696F90720821A03
:1025F000052A04DAB2798A4208BFB2886FD041F264
:102600009C340F28A0F10F02C5F2000424DB02EB7A
:1026100002121712072F88BF07273D46062D88BFD5
:10262000062554F825C00423A64603EB85035EF86F
:102630000330CD08A3EB0C0303F0FF0C24BFC3F35E
:102640000725AC448D0824BFC3F30745AC444D08AF
:1026500005D30CEB136C02E04FF0000C674654F806
:102660002730CC0803F0FF0524BFC3F3072425441B
:102670008C0824BFC3F3074425444C0828BF05EB4E
:102680001365A2EB07221FFA8CF353438033002219
:10269000082B88BF012243F6B473C5F200031C68FF
:1026A0001B684FF4D07C34275219241703F0FF0322
:1026B00007FB14C45C434FF6FF73B4FBF2F2934282
:1026C00038BF1A1C802892B2B28005DA10F1800F50
:1026D00003DA6FF07F0000E07F20F071B17142F209
:1026E0000800C4F2090001681F2A4FF000003160A1
:1026F00008D340F2FF11914206D25208401C914289
:10270000FBD301E01F22B2800F3A4FF600714FF069
:10271000350E1209C8F2A401C4F2090E40EAC20043
:102720000143CEF8FB1F4FF0000CCEF8FFCFF8BDF1
:1027300043F64E524FF6FD50082141F2300EC2F2E0
:102740000002C0F2A4001170C4F2090ECEF800001D
:10275000F8BD70472DE9F04F8346ADF15C0D07F0F1
:102760009AFC4FF00009012805D108F09AFD0228D3
:1027700008BF4FF0010954490868C0F3815001288F
:1027800006D151F80C1C0120090E884040EA0909C5
:102790004E494F484F4D09780068C0F34600286005
:1027A00007F079FC2C46012818BF206802D1206868
:1027B000401C206038B1FF2204F1400107467F1E13
:1027C00001F8012BFBD1DBF80010002601F0FF021D
:1027D000FF2A1BD08C46DE46324601270CF0FF0153
:1027E000884204D907FA01F319EA030F01D0022045
:1027F00067E00CF0FF015EF804CF61181E4381F81A
:102800004020521C0CF0FF01FF29E9D1092002F001
:10281000E3F8C4F804B001A800212422082309F039
:1028200095FA4FF0010804F1240001AA8DF81C80EC
:10283000414609F087FA23682BB300276035BA4672
:1028400008FA07F019EA000F17D1064204BF07F093
:10285000FF0141F4C04104D0E01990F840005BF85A
:1028600020101D4802F004FFF8B24FF0FF3108F0CD
:10287000E1FC2368C5F800A001E0042028607F1C6B
:102880002D1D9F42DCD30AA800213022082309F025
:1028900055FA002504F1080010210AAB0F4A0095F3
:1028A00009F048FA0E4A52F80D0C414620F4F8504F
:1028B00040F4005042F80D0C0A4BC2F8FF1F2846A6
:1028C000196017B0BDE8F08FB43F0050503D0020B4
:1028D0008012084088390020007FC767C98E000039
:1028E0000D300940080009402DE9F84F0D4681469A
:1028F0002868D9F80440D9F808B0002800F0A98069
:1029000009F014FA616D21B109F00CFA0320287462
:102910009FE001212974656509F004FA94F87000BC
:1029200030B194F859204C49A06E114307F0BCFC1B
:10293000DBF80010486840F002004860D9F804C095
:10294000D9F80830D5F800E09CF8582019681FFA2B
:102950008EF09040B1F1804F1FFA80FA14BF3F4EC5
:102960003F4E4048AA6832B99CF858108F00C259AF
:102970000CF1720108E09CF858108F000AEB02017C
:10298000C21952F8082C491EB2607160196801F131
:102990000808C6F80080B2684FEA0E1143F6F07ED0
:1029A00010390EEA01010A43B2601A68B2F1804F91
:1029B00014BF2D4A2D4A6E68002E04BFC0599E1DBB
:1029C00004D0C01950F8100C5644761E9060166062
:1029D000C2F80480906801439160DCF86C00DF6805
:1029E00041689A68096847EA020088621968486A7B
:1029F00040F003004862DBF80010486940F0010035
:102A000048616E6809F092F9194D07462878012847
:102A10000AD016F0704F02D1102007F0B3FA04204C
:102A200007F0B0FA01202870384609F07BF92078C9
:102A300028B961683834204609F070F910B10120D6
:102A4000BDE8F88F484601F021F92046002109F041
:102A500065F90020BDE8F88F000006800005002021
:102A600030040020ECBE00001005002040040020CF
:102A7000563D00202DE9F0478046D8F80460D8F88C
:102A800008700D46ADF1580D09F050F93178012963
:102A900003D109F047F9002099E04FF0010A86F8C8
:102AA00000A009F03FF91DB90DA808F07FFC0DAD9D
:102AB000287870706878B07068687060A868B060D6
:102AC000E868F06028693061287D3075687D707530
:102AD000A87DB075A869B061287F3077687F70776E
:102AE000A87FB07700253562356375627563B5627E
:102AF000B5632C4686F82C40102386F83C3086F8C7
:102B00002D4086F83D40387A01F066FF404602F0DD
:102B1000F3FC404603F04AFA78B92E480068C068D2
:102B2000014638688847387A02F034FA09F0FEF82E
:102B3000347009F0F7F8A04648E001A82146302299
:102B4000082309F0FBF8CDF81880A146CDF80090D5
:102B5000214A796806F1580001AB09F0EBF801A8A9
:102B600024220823294609F0F1F88DF81CA0B0783A
:102B700038B906F17400294601AA09F0E3F81748AC
:102B80003061707838B906F19000294601AA09F041
:102B9000D9F81348F06001A829462422082309F037
:102BA000B9F80695ADF8144006F1AC000D49CDF822
:102BB0001C800A2201AB09F0A9F806F144000A4A78
:102BC000CDF800900421434607F0D8FD404616B0EA
:102BD000BDE8F087D00100105D4600008FBB00000B
:102BE00067BB0000716100007DB800002DE9FF4760
:102BF00031A006F007FF012708215048ADF8041066
:102C00000068ADF80670014601A888474F4CBDF832
:102C1000080060800398A06005F0E6F804F10C005D
:102C200008F0DEFA4FF47A7500200422A5800146F0
:102C3000277008F0F7FB21783846024608F0F2FBCF
:102C400008F0ECFF022064213A4608F0EBFB24A0D8
:102C500006F0D8FE3A4A3C493A481668A8460D465E
:102C6000B0FBF6F9B1FBF6FA1DE0384606F0EEFBD4
:102C7000504609F08FF80DF10200694603F092FB0F
:102C8000BDF80200E080002006F0E0FB00200421F7
:102C90006A4604F0FFFBA08808FB00F0401BB0FB75
:102CA000F6F009F077F820780128DED019A006F0B8
:102CB000A9FE4846F5E7C0462B2B2B2054656D70C6
:102CC000657261747572653A3A73656E736F7254AA
:102CD00061736B46786E20626567696E0D0A00C08D
:102CE0002B2B2B2B2054656D70657261747572658A
:102CF0003A3A73656E736F725461736B46786E20E7
:102D0000656E746572207768696C65206C6F6F7092
:102D10000D0A00C073656E736F72436F6E666967EC
:102D200020213D2053545F4346475F53454E534F48
:102D3000525F454E41424C450D0A00C00419002027
:102D400010C5000040420F0038320400501400202B
:102D50002DE9FE4F82460E460CAF307A3C889946EC
:102D60001546800928BF082080F09780084602A9F0
:102D700007F09EFE012808BF012000F08E80BDF8FC
:102D80000800DFF81CB142F6021100274FF0FF08DF
:102D9000401A6BD048F2FF21401A33D0401E18D0A1
:102DA000401E61D1002C5DD1B9F1020F58D12878B5
:102DB000062825DAF06829880180F168584688429B
:102DC0005ED159460878497804F030FE4FF0020889
:102DD00059E0002C46D1B9F1060F41DA28781028C5
:102DE0000EDCF06829464A4603F044F805F010F975
:102DF000F16858460C30884242D14FF0010842E059
:102E000080273DE074BBB9F1100F29DCF06829463A
:102E10004A4603F02FF85C46584600F10C02207831
:102E20001678012802D9401F12D029E06178557820
:102E300003F00AFF1EB9284608F0F8FC05E004F18B
:102E400011012846324607F01DFE08F0F1FD17E09B
:102E5000D2F8010004F11101324603F00BF80FE043
:102E60000D270DE00B270BE00A2709E00094012154
:102E70002A4650464B460191314605F087FA0746EF
:102E8000B8F1FF0F08D05846001D006820B1006857
:102E900010B10146404688473846BDE8FE8FC0461F
:102EA000581B0020B0B5456884684D48297BADF1BA
:102EB000180D01291AD001462F7E227C637C4948D7
:102EC00037F0010741EA020240EA03000190464858
:102ED000009218BF011CA27C1143029195F8592061
:102EE0000323FF2A13D0014610460DE0A17C627C2B
:102EF000237C41F00041024343F00043029195F8E6
:102F00005900009339490192014304230391FF21A1
:102F100005F15C004DF82310694603F071F9A866CD
:102F2000002808BF002058D0287B314951F82000E4
:102F3000012828D02068B0F1804F14BF22220A2235
:102F4000217CA86E07F058FE2068B0F1804F14BFB6
:102F500021220922617CA86E07F04EFE2068B0F1A4
:102F6000804F14BF24220C22A17CA86E07F044FEDF
:102F700095F85910FF292FD02068B0F1804F14BF69
:102F800023220B2225E02068B0F1804F14BF2122BC
:102F90000922217CA86E07F02FFE2068B0F1804F37
:102FA00014BF22220A22617CA86E07F025FE206849
:102FB000B0F1804F14BF24220C22A17CA86E07F030
:102FC0001BFE2068B0F1804F14BF23220B2295F81E
:102FD0005910A86E07F010FE012006B0B0BDC04623
:102FE000000480A0004000800004C0A000200080F9
:102FF000D4BE00004F482DE9F04101684E4D7D20C0
:10300000ADF1180D4843460985F88960410B85F8F4
:10301000881008F0FBFC0746B81006F097FF4349FC
:1030200003F05CFD804608F021FC07F071F985F89B
:103030008A0095F8540007F0EDFE0146404601F085
:103040001FF93B4903F04AFD07F062F985F88B0050
:10305000686985F88F00010E85F88C10010C85F8E1
:103060008D10000A85F88E0008F0D6FC440004EBB1
:10307000C00485F89340200E85F89000200C85F858
:103080009100200A85F8920008F0B4FC85F89400BD
:1030900008F0B6FC202185F89600031285F886100A
:1030A00005F17B0285F8953040F207301C21FFF7CF
:1030B00037F8404606F012FF00976A6901920294C1
:1030C00095F89420039295F89520049295F89640EF
:1030D0000B463146024603A0059406F093FC06B069
:1030E000BDE8F08176626174743A2025642C207406
:1030F000656D703A20252E32662F25642C20616480
:1031000076436E743A2025642C20736563436E7495
:103110003A2025642C206B6579733A25642C206C49
:1031200075783D25642C250D0A00C0460000003D41
:103130000000804328500940200500202DE9F04F71
:1031400004460D464D4E68782978ADF1140D01EB1B
:103150000021ADF800107188BDF80000884217D139
:10316000706940F6FF7200EB0110024203D1000BC0
:10317000C0B208F0BDFCBDF80010B079AA1C102345
:10318000090108F0BFFC7088401C81B2718007E023
:1031900008F020FA20464FF6FF7104F07FFB71889B
:1031A000B088884264D10DF1020008F00FFBBDF831
:1031B00002004FF6FF71814257D0BDF8020000288F
:1031C00053D0BDF80400814203D0BDF804000028AC
:1031D00043D1B288F0880027110101F47043C5B2D1
:1031E00003975FFA92F2C91A82181FFA81FB5FFAFD
:1031F00082FAAA4528DBAAEB050101F10108A842E1
:103200000CBF04240024AA45D8BFA34516DD2846D8
:1032100021460DF10602042308F06FFC04270DF18E
:10322000060919F8011B039807F0F4FA7F1E0390B2
:10323000F7D1241DA4B2B4F5805FE4DBF0886D1CE7
:10324000B8F10108EDB2DAD10398002107F0E2FAF3
:10325000002107F0DFFAADF80400BDF80400BDF866
:103260000210884201D101F0C7FF08F0B3F902E073
:10327000204604F013FB05B0BDE8F08FAC1A002027
:103280004D4B2DE9F04F0C46343B998BADF13C0D85
:1032900086460991587B0E90598B089158780D906D
:1032A000198B0791988C0C90D97A588C0691D3F889
:1032B0002CA00B90997A188C059193F804900A90A1
:1032C000597A93F80C800491197AD88B0391D979A3
:1032D0005A7902919979DE8A0191D9789F8A009171
:1032E0009978AEF5407C0025BCF11D0F10D8DFE8C1
:1032F0000CF05D5653504E4C4A4743403E3C3937E4
:10330000350F3432302E2D272422200F1D1B1A1882
:10331000BEF1270FA8BF022549DA704606F074F9FE
:1033200014E0DDF83880C146CDF834900D98059052
:1033300016E00C980B900B980A900A98074622E02A
:103340004433186820609888A08030E0099009987C
:1033500008900898079007980690069E268026E019
:10336000059804900498039001E03E33E9E7039840
:1033700002900298009008E0019A03F1890111E09F
:1033800003F16A010EE03846E0E700990EE03833B9
:10339000D7E7C4F800A00AE003F15A0101E003F105
:1033A0004A011022204602F065FD00E02170284607
:1033B0000FB0BDE8F08FC046400E00202DE9F04F61
:1033C0008046D8F80450D8F808400F46ADF1540DA7
:1033D00008F0ACFC95F8981004F10409012903D118
:1033E00008F0A0FC002077E04FF0010B85F898B0C2
:1033F00008F098FC1FB90DA808F0C0F90DAFF868E7
:1034000028B9D8F80800067B90F80DA002E00678ED
:1034100090F801A0FF2EE5D0BAF1FF0FE2D0FF2215
:103420002F49304C139241EA0600119041EA0A01FB
:103430001291201D11A902F0E3FE00282060D1D0D6
:1034400031460D2207F0D8FB206851460E2207F0C6
:10345000D3FB3878287078686860387A0021302289
:103460000823E86001A808F069FCCDF81880002462
:1034700000941D4AD9F8001005F1100001AB08F0C6
:1034800059FC01A824220823214608F05FFC05F11D
:103490002C008DF81CB0594601AA08F053FC28787E
:1034A00038B905F14800214601AA08F04BFC0F4845
:1034B0006860AC672C72EC6799F8040001F08CFA34
:1034C000404605F04FFA05F18400094A00940421B2
:1034D000434607F053F9404615B0BDE8F08FC046AB
:1034E00000200084203D00204147000037BB000041
:1034F0005DB800002DE9FE43002A894607464CBF0F
:1035000047F6FF74141C002F08BF00205FD03B88D3
:10351000002B31D03D480088214698422ADA3C4AA7
:103520001088984215DA3B4A168826B929A24846DF
:1035300005F05CFC1CE03848019100260268CDF8DB
:10354000009036490296154618466A46A847029DDD
:1035500013E03348026800E0126822B11089834208
:10356000FAD1121D00E004221268484605F03EFC24
:10357000054602E01CA2DAE70025601B26DD38883C
:1035800028B1611B48461BA205F030FC4519B868FC
:10359000E0B1D7F80480661BB8F1000F0DD04046AB
:1035A00008F07CF8401DB04207DC611B484612A2BF
:1035B000434605F01BFC4519661B122E06DBBB6853
:1035C000611B48460EA205F011FC45192846BDE8CE
:1035D000FE83C0467B6D6F64756C652D726F706580
:1035E0003A25787D00C046C07B6D6F64756C65239D
:1035F00025647D003A2000C0222573222C2000C0C3
:103600006C696E652025643A2000C046F2C4000053
:1036100082C400008A05000020C5000045A3000008
:103620006C2400202DE9F04304466668A5680F4627
:10363000ADF1540D08F07AFB96F8A4102D1D012968
:1036400003D108F06FFB002076E04FF0010986F807
:10365000A49008F067FB1FB90DA807F0E3FF0DAFBA
:103660004FF00008C6F8548038693061786970619D
:10367000387E3076387B307338783070786886F8EA
:103680007080706078694146092828BF494686F8ED
:103690005810687801F0A0F9204604F0F3FDE87BAB
:1036A00086F859002046FFF7FDFB50B9687801F015
:1036B00071FC08F03BFB86F8A48008F033FB44461D
:1036C00039E001A841463022082308F037FB069470
:1036D000CDF800801A4A297806F11C0001AB08F0E9
:1036E00029FB307878B901A841462422082308F044
:1036F0002DFB06F138008DF81C90414601AA08F018
:1037000021FB104800E0B868B06003F05FFF317B38
:10371000F066012906D1B06E0B4908F065F9B06E6C
:1037200000B1846006F19000084ACDF800800421C1
:10373000234607F023F8204615B0BDE8F083C046C5
:103740008D3F00003FBB0000AD9C000079BA000037
:103750002DE9F0470C469046DFF8F890414D3F4F79
:103760003D493F4AD9F8003008284FF00006ADF136
:10377000180D69D8DFE800F05F5B4C4844403A110F
:1037800005C0072C59D14046828805F108018A807E
:1037900087798F710068086057E003940420ADF8C2
:1037A0000A004FF0080AADF808A002A89847D8B957
:1037B00004980746C0B1696805F1170088420BD02C
:1037C00005214846ADF802106A68ADF800A000680F
:1037D000019201466846884738464146224602F033
:1037E00049FB6F602C7030E013262EE0142C24DC93
:1037F00001F11505294601E0142C1EDC0D460BE0F5
:10380000142C1ADC3D4606E0142C16DC3D4603E081
:10381000142C12DC1546153528463146152203F0C6
:103820009EF928464146224602F024FB0DE0142C66
:1038300003DC1546DEE7082C01D0182605E04046DB
:1038400042686A394A60A5E70226304606B0BDE8FC
:10385000F087C046041900208D1700206317002050
:1038600039170020141700202DE9F0413E4F387819
:10387000002876D03D4C208910F07F0F00F07F08A3
:103880006DD006F0FAF83A4E21783578A0700DB96F
:1038900002293AD12279C30917D2400824D304F16E
:1038A000140006F055F804F11A0006F015F8E57852
:1038B000E088002D08BF217816D00021E170217822
:1038C0004FF47A7292FBF0F009E0521CD0B2022859
:1038D000207109D1E0884FF47A72B2FBF0F002B2A5
:1038E000500000EBC200E0600025022935700CD1C9
:1038F0002089C00909D304F1200000F0C5FB052888
:1039000022D008B104F028FB2178E66816B9012915
:103910001BD124E0022904F1140509D002202070F3
:103920000026267101F0C4F810B1404601F09AFB60
:103930002089000A02D3E068401EE06000201221C6
:103940002A4603F06DFA0AE0E560002020710126A6
:10395000267001F0ADF810B1607800F0CFFF0020C4
:103960003870BDE8F081C046543D0020E4200020BE
:10397000533D00202DE9F0430646ADF11C0D08F043
:10398000C1F906F0D7FD4FF000090546CDF80890C3
:1039900008F078F830F0010002D00298A84202D175
:1039A0006FF0040068E070684C4658B1B0F1FF3F1A
:1039B00005D001A906F08EFD30B107465BE04FF05F
:1039C000FF3000E02046019008F098F901990127A6
:1039D00001EB000802E013463DE00193686801999D
:1039E00008F09CF900282FD003A804F025FDE0B9C9
:1039F000BDF81000694606F085FD90B9B268BDF8C3
:103A00000000BDF812101346059A984748B1BDF85A
:103A10000000BDF81210B081059BF1814F46336163
:103A200012E0059902A806F0B9FB0198641CB0F1F8
:103A3000FF3FD3D00028D1D008F060F9B8EB0003E5
:103A400002D001989842C8D2029E07F0ADFB05F162
:103A5000080146B1334653F80C2C002ABBD10A6842
:103A600043F80C2C0E6007F041FD24B1686808F0A3
:103A700041F9641EFAD1384607B0BDE8F0837047BB
:103A80001CB5404C401E02D0401E3AD01CBD07F071
:103A9000EDFFC00804D2FF20207021A005F0B2FF86
:103AA0002078FF2827D00120694606F08BFD9DF87D
:103AB0000010207881B9D0B121A005F0A3FF04F156
:103AC0000C0008F0B4F8002006F0D2FE002002221C
:103AD000014607F09BFC0AE048B923A005F092FFDD
:103AE000012006F0C5FE04F10C0008F09EF89DF8D8
:103AF000000020701CBD0120FF21024607F086FC5B
:103B00001CBD0220694606F05DFD9DF800004100E5
:103B100001EBC001618004F10C0004F05FFD1CBDED
:103B200053656E736F725461674F70742C205354D9
:103B30005F4346475F4552524F520D0A00C046C090
:103B400053656E736F725461674F70742C205354B9
:103B50005F4346475F53454E534F525F444953417D
:103B6000424C450D0A00C04653656E736F72546136
:103B7000674F70742C2053454E534F525F434F4E46
:103B8000460D0A00E02200202DE9F843804607F0A8
:103B90001FFF002100B901213A4D2D1F2868002880
:103BA000FCD0DFF8DC90012609F10407FC6A2E60E6
:103BB00009B107F013FF3448C4F3072100F10804EA
:103BC000616007F005FF0146002001B9304601465B
:103BD00028680028FCD03F682E6009B107F0FEFE7F
:103BE000C7F38441A8F5C060A160B8F5C06F20603C
:103BF000B4BF6FF001030223626803EB40030320AC
:103C000093FBF0F00918104602290FDB1E290BDB8D
:103C10003F28B9BF521C401C3F22101CE2603029D3
:103C2000B4BF10391F210DE0E0600BE010F13F0F31
:103C3000ACBF401E6FF03F00E06011F1100FACBF51
:103C400010310021216180B24FF47F4208233021DE
:103C50000090484604F0C5FB0096484604214FF406
:103C60000032112304F0BDFB208A04214FF4F80236
:103C700012230090484604F0B4FBBDE8F883C04628
:103C800000A00C4004800C40EC2300202DE9F047FC
:103C900007467C68BE6808F049F80834E16C0029E2
:103CA00068D008F03FF83168486820F002004860AA
:103CB0003168486A20F003004862606EF568416828
:103CC000B268096845EA0200C1F80405316848692C
:103CD00020F00100486130684FF00108C0F82080F2
:103CE0003068B0F1804F14BF40F201104FF4807083
:103CF000224909688847384604F0C4FAE06CD0F8D5
:103D000004A008F013F81E4D8146287850B11AF02F
:103D1000704F02D1102005F039FE042005F036FE68
:103D200000202870484607F0FDFFE16C087C04285D
:103D300002D003200874E16C606E4368B268F068DA
:103D40001B68454610438540DD623068B0F1804F06
:103D500014BF0C480C48026808689204A0EB92500B
:103D6000401E0860206800230246E36438469047FE
:103D7000BDE8F08707F0D6FFBDE8F08778000010B7
:103D8000563D00200805002038040020F8B53E4CC0
:103D900022786078824270D000200121224605F00E
:103DA000B5FA374D2878022802D1207807F05EFB5B
:103DB00063782278334E98083ED390083CD2E76867
:103DC00020693168C01B4FF47A77414341F2883053
:103DD000B1FBF7F188422FDA42F2107088422BDDF6
:103DE0001520062104F0D2FE2878062814D040F2CF
:103DF00005306946FFF744FA9DF8000000280CBF23
:103E00000120002001210DF101028DF8010040F296
:103E10000530FEF785F9287806280BD101258DF8A5
:103E2000025007F077F840F205300DF10202294602
:103E3000FEF776F92278637803F0030003281CD19B
:103E400002F00300032818D030682569E168534068
:103E50009B083CBF6168A5684FF47A736D1A68438C
:103E600042F21071B0FBF3F0814206DA15200A210C
:103E700004F08CFE07F0AEF822786270F8BDC04600
:103E80002005002010C50000202400202DE9F04767
:103E900007467E68D7F8089090460C4607F046FF24
:103EA000B56A8246002D65D106F1AC0007F01EFF11
:103EB0000025F57734625046756207F033FF07F04E
:103EC00035FF314C82462078012804D0042006F0CA
:103ED00059F801202070504607F024FF294A106845
:103EE000414640F480701060384605F06DFDB062C8
:103EF000C0B93846414604F0ADFDB078D0B9B168DC
:103F000006F1740007F00AFFE8B9B5621020F077F7
:103F10004946304602F0E8FC07F008FF8246207868
:103F200040B323E0D9F80010886B40F0200088638C
:103F3000B07810B12846BDE8F087B16806F174008A
:103F400007F0ECFE10B1706ABDE8F08738464146D4
:103F500004F080FD1020B5624946F077304602F04B
:103F6000C3FC07F0E3FE8246207818B1042005F078
:103F70000DFD2570504607F0D5FE4FF0FF30BDE82F
:103F8000F087C04630100040573D00202DE9F04733
:103F90000646B1680A687468D0690834106240083F
:103FA00042D2606E40680268CD68D2F804052842AB
:103FB00006D00B68586A20F002005862C2F8045517
:103FC000D2F804258868024258D00A68506A20F066
:103FD00001005062606E406889680068C0F804158E
:103FE000E06C00250574E76CD7F804A007F09EFE8E
:103FF000DFF88C80814698F8000050B11AF0704FBD
:1040000002D1102005F0C2FC042005F0BFFC4046A0
:104010000570484607F086FE2068E564394602468A
:1040200030469047BDE8F0870A68506920F00100EB
:104030005061E76CFFB9506820F002005060506A90
:1040400020F003005062606E8B684468CF6821687E
:10405000B2F1804F47EA0300C1F804050CBF4FF4EA
:10406000807040F20110074909688847304604F023
:1040700009F9BDE8F0873046FFF708FEBDE8F08794
:10408000563D002078000010FEB53D4C0546062147
:10409000601C017007F00CFB18B907F0C9FC002088
:1040A000FEBD002601206821667002F0CDFD2220B1
:1040B000694601228DF80000372006F0E3FC08B9BC
:1040C0000520607007F0B4FC6078002818BF301C31
:1040D00054D101200C2102F0B7FD022069460122D3
:1040E00007F025FA00283CD09DF80000400836D3A0
:1040F00003200DF10101072207F019FA68B39DF8BA
:104100000700000927D29DF802709DF801009DF874
:1041100004609DF803109DF806309DF8052040EAE4
:10412000072041EA062142EA032200B2288009B2B0
:10413000698012B2AA80B4F908305843001228806E
:10414000B4F90A00414308126880B4F90C004243F4
:104150001012A88007E0032004E0042002E00220FF
:1041600000E00120607011208DF8000069460122F6
:104170000A2006F087FC07F05BFC6078FEBDC046B5
:104180007C220020FEB5384B05461888AB881446C3
:104190000F4698422BDA35480088984216DA3448A0
:1041A000008888B10097002C54BF111C47F6FF719E
:1041B000304800680191002102912F496A46064665
:1041C0001846B047029E18E01CA211E02B48006878
:1041D00000E0006820B101898B42FAD1001D00E0A7
:1041E000042002682146384604F000FE04E018A2CC
:1041F0002146384604F0FAFD0646002C02D4A01BE6
:104200000A2806DB2B68A11B384614A204F0EEFD39
:104210008619A88978B1002C06D4A86807F03EFA60
:10422000A11B401D884206DCAB68A11B38460CA2CE
:1042300004F0DCFD86193046FEBDC0467B6D6F6420
:10424000756C652D726F70653A25787D00C046C02B
:104250007B6D6F64756C652325647D00257000C0DF
:1042600028272573272900C0F2C4000082C400005B
:104270008A05000020C5000045A300006C24002032
:1042800081F000412DE9FC414FEA01244FEA41054C
:104290002D0E04D1002C18BF0020BDE8FC8144F095
:1042A0000044FF2D5ED04FEA9404002948BF6442C9
:1042B0004FEA00224FEA40031B0E05D1002A14BF2B
:1042C0000020081CBDE8FC8142F00042FF2B4AD0D0
:1042D0004FEA9202002848BF52425E1B41BF171CA2
:1042E000221C3C1C764248BF2B1C192E47BF44FAA7
:1042F00006F73A444FF0000803E0C6F11C0704FA41
:1043000007F8002A04BF0020BDE8FC8146BF5242E6
:1043100001270027A3F101035200FBD512F080040E
:104320000DD002F0200548EA0508803228BF5B1C4A
:1043300002F0400458EA040808BF22F480729B1C73
:10434000DCBF0020BDE8FC81FF2B0ED222F0FF0273
:104350004FEA42024FEA522040EAC35040EAC77097
:10436000BDE8FC8108464FEAD0774FEAC777FF20C7
:104370004FEAC0503843BDE8FC81704738482DE90A
:10438000FC4700680068014620208847354DDFF86B
:10439000D8A04FF002080F2000214FF4C07207236D
:1043A00045F82D0C41F61D5045F8290C5046CDF826
:1043B000008004F016F82D4C012644F8046C54F8E3
:1043C000040C8008FBD3DFF8A890B9F8000045F88A
:1043D0001D6C01281FD0032045F8390C00272760E9
:1043E00020688008FCD2394650466022052300919F
:1043F00003F0F7FF266020688008FCD345F8216CA5
:1044000045F8397C0820C5F8FF0FC5F8F30F45F8CB
:10441000396C464620E00027E760032045F8390C58
:10442000276020688008FCD2CDF8008050463946CD
:104430006022052303F0D5FF266020688008FCD3A6
:10444000202045F8210C45F8397C0824C5F8FF4F99
:10445000C5F8F34F45F8396CC9F80460BDE8FC872E
:10446000A001001039400C4000A00C4038600C4006
:10447000EC2300202DE9F04390460A68D8F800505C
:104480001678814600271C46ADF1140D3846531CA2
:10449000242E0B6053D112F8016F5B1C4C2E0B6065
:1044A0000ED1A268ED1C25F003052D1D55F8040C56
:1044B0004946FFF767FE2168E7600127091A216076
:1044C000462E1AD1ED1C25F003052D1D55F8040CC0
:1044D000ED1C029025F003052D1D55F8040C002756
:1044E00049460390A268ADF8047001A8FFF702F8EE
:1044F0002168E7600127091A2160532E1FD1ED1CA6
:1045000025F003052D1D55F8040CE061C8F8005096
:10451000208B0090A168E269D9F800004346FDF7BE
:10452000BDF8D9F80050002715B14119C9F800109D
:10453000D8F800502168E760091A01272160662E2B
:104540000AD1238B23B9ED1D25F00705083503E0BB
:10455000ED1C25F003052D1D1FB9E1690E70012723
:10456000E760C8F8005005B0BDE8F083F8B507F083
:104570002FFA314C256805F00C000C2855D0E808BE
:104580002ED22E480068EFF3118780F311882C4E4D
:10459000B068002107F0A6FB7169B269091A8A4266
:1045A00038BF002187F3118826480068884217D257
:1045B0002548264A264D036812682868B3FBF2F2A4
:1045C0002018891A07F08AFB2868201807F082FB58
:1045D0000120FDF729FC2868201807F087FB25E05B
:1045E000280922D21B48690939BF016821F001015D
:1045F000016841F0010102460160D2F898004FF0D5
:10460000805440F00300C2F89800D4F8B8018069E3
:10461000014620208847D4F8B8010F4C806B2168F0
:10462000804701202060206800E030BF07F0D6F905
:1046300003F034F8F8BDC046F81E00200CC5000099
:104640007801002004C5000008C5000010C5000066
:10465000F4C400008C2108402C2009402DE9F843C7
:104660000746D7F80880D8F800007D68066C16F475
:10467000F06F466424D1F00911D270094FD395F838
:104680003C00AC6B401E844288BF041C3846214667
:1046900005F0C8F8A86B001BA8630DD03FE0A96B1C
:1046A000384605F0BFF895F82D10A86311B9002819
:1046B00035D101E00020A863384604F04BFB2EE022
:1046C000F00A0ED3D8F80000002144684160A96BBD
:1046D00004F00F04202988BF2021384605F0A2F8F5
:1046E00019E04FF0000902E0A86B401EA863A86B18
:1046F00088B13846012105F095F8D8F800004468E3
:1047000014F00F04C0F80490EED0286B401E28630C
:10471000686B401E6863EC77384602F069FCB009AC
:104720000CD3AE6A56B13846314605F04DF93146E4
:10473000A86218B93846091D04F08CF9BDE8F88361
:10474000F8B5064635480068B468756840680146A3
:1047500020688847226801210835C2F81C1868B112
:104760002B78FF2B0AD0FF214009297051D2042059
:10477000C2F80408022007F01EFA4AE02878002850
:1047800047D0401E13D0401E02D0FD3844D03DE03B
:10479000D2F80828A86E0270A86E401CA866EF6EBA
:1047A0007F1EEF6619D0012F88BF092127E06F6EA9
:1047B0007F1E6F6613D1EF6E7FB10220E96D287006
:1047C0002268097C012F4FEA410141F00101C2F842
:1047D000001894BF03210B2113E004210DE0286E83
:1047E00022680078C2F80808286E022F00F1010044
:1047F000286604D2EF6E17B90521002028702268C0
:104800000220C2F8041807F0D6F9F8BDFF2028707E
:10481000F8BD304603F0B2FCF8BDC046AC01001054
:10482000F0B50C460746ADF11C0D07F0FCF910B1D0
:10483000684604F025FBE179A0792F4D002600EBB6
:1048400001206E808010A880E079A17901EB002121
:104850008A10201D694606F095FA211D00283AD1DC
:10486000A968384606F082FF400831D338461B213C
:104870000822334606F074FA059048B305F1180093
:1048800009212A4606F073FC08224189ADF812205E
:10489000059CADF810109DF800002070BDF80010C8
:1048A0000598091241709DF802108170BDF8022030
:1048B00001AD1212C2702968031D324638461960D4
:1048C00004A906F0EBFB18B104A81B2106F05EFC5E
:1048D00006F080FE0EE0084606F01EFE6861000B42
:1048E000E88006F07BFF204604F0F0FC38463146B5
:1048F00002F0D4FF07B0F0BDAC1A0020F8B50646B0
:1049000006F0D6FE00284FD00120682102F09CF965
:1049100000284BD02E4D09202C1D0122207021464D
:104920006B2006F0AFF800283ED007202871214602
:1049300001226C2006F0A6F8002835D001271D20A2
:1049400021462F713A4606F09DF800282CD04020D1
:10495000287121463A46382006F094F820B3C0204A
:10496000287121463A46692006F08CF8E0B12E7194
:104970001F2021463A4606F085F8A8B10620287186
:1049800021463A461E2006F07DF868B1292028719C
:1049900021463A466B2006F075F828B1E91C1C2028
:1049A0003A4606F06FF818B907F042F80020F8BD53
:1049B0003A2021463A4606F0BAFD07F039F80021C0
:1049C00029706869034905F06FFC3846F8BDC04698
:1049D0007C220020070006802DE9F04105462E4884
:1049E0000068EFF3118880F311882C4A505D411C58
:1049F0000028515549D12A4CA900675C07F03F00B7
:104A00003F280C4401D0FFF7E7FF607800F03F003B
:104A10003F2801D0FFF7E0FF668837F07F0019D10B
:104A2000F80911D24FF08054D4F8B801406901461A
:104A30003046884704F5DC742068406B01463046F8
:104A400088470128F8D120E0164850F826100120A8
:104A500088471AE04FF08054D4F8B801C069014685
:104A600030468847D4F8B801406A01463046884746
:104A7000D4F8B801C06A01463046884701210A4A85
:104A80000A48116001688908FCD388F31188284618
:104A900006F02AF9BDE8F0810CC50000EC190020F1
:104AA0000CBF0000041A00202820086028200840BD
:104AB000F8B5334D2F49686905F0F6FBFF20A87063
:104AC00000242C7068216C70012002F0BDF80028D1
:104AD00008BF271C4CD02C4680200122211D2071AC
:104AE0006B2005F0CFFF06F0A3FF234923480D6894
:104AF000B0FBF5F007F04EF903F05CFA261D071C39
:104B000036D0022003F0BEFD06F0D2FD60B304F003
:104B100015FB58B301200C2102F096F830B30F209A
:104B20003070314601220A2005F0ACFF42F21070CD
:104B3000B0FBF5F007F02EF904F10E01102003226E
:104B400006F0F5FC04F10E0140B1087880302081B8
:104B500048788030608188788030A08101220B20E5
:104B60003146227105F08EFF06F062FF04F04EFC24
:104B70003846F8BD0700008010C50000A08601007F
:104B80007C2200202DE9FF4782460D460CAF287A93
:104B90003F8899461446800928BF082055D2084608
:104BA00002A905F085FF012808BF01204DD0BDF8FE
:104BB0000800DFF89C8042F60211FF26401A2ED032
:104BC00048F26311401A012827D827BBB9F1010F19
:104BD0001FD1BDF808104AF666200027884202D18E
:104BE0002178032913DA2178EA681170BDF80810DA
:104BF000884205D0E968404688421AD13E461AE00C
:104C0000E9684046401C884213D1012613E0802702
:104C10000FE00D270DE00B270BE00A2709E00097B6
:104C20000121224650464B460191294603F0AEFB36
:104C30000746FF2E08D04046001D006820B10068DE
:104C400010B101463046884738460090BDE8FF87DE
:104C5000D81F00202DE9FE4F82460D460CAF287A62
:104C60003C8898469146800928BF082056D20846BD
:104C700002A905F01DFF012808BF01204ED0BDF894
:104C80000800DFF89CB042F602110026FF27401A08
:104C90002ED048F21F11401A34D0401E14D0401EAE
:104CA00024D10CBBB8F1010F1CD199F800000A28DF
:104CB00008DBE9680870E9685C46601C884221D11D
:104CC000022721E080261DE074B9B8F1010F09D157
:104CD00099F80000E9680870E9685C468C4211D1D7
:104CE000012711E00D260DE00B260BE00A2609E056
:104CF000009401214A46504643460191294603F05B
:104D000045FB0646FF2F08D05846001D006820B11D
:104D1000006810B10146384688473046BDE8FE8F2E
:104D2000441D00202DE9FE4F82460D460CAF287A27
:104D30003C8898469146800928BF082056D20846EC
:104D400002A905F0B5FE012808BF01204ED0BDF82C
:104D50000800DFF89CB042F602110026FF27401A37
:104D60002ED048F2FF01401A34D0401E14D0401E0D
:104D700024D10CBBB8F1010F1CD199F800001E28FA
:104D800008DBE9680870E9685C46601C884221D14C
:104D9000022721E080261DE074B9B8F1010F09D186
:104DA00099F80000E9680870E9685C468C4211D106
:104DB000012711E00D260DE00B260BE00A2609E085
:104DC000009401214A46504643460191294603F08A
:104DD000DDFA0646FF2F08D05846001D006820B1B6
:104DE000006810B10146384688473046BDE8FE8F5E
:104DF000D81D00202DE9FE4F82460D460CAF287AC3
:104E00003C8898469146800928BF082056D208461B
:104E100002A905F04DFE012808BF01204ED0BDF8C3
:104E20000800DFF89CB042F602110026FF27401A66
:104E30002ED048F27F11401A34D0401E13D0401EAD
:104E400024D10CBBB8F1010F1CD199F800000A283D
:104E500007DBE9680870E9685C468C4222D10227CA
:104E600022E080261EE07CB9B8F1020F0AD1E86882
:104E7000494609880180E9685C46601C884211D176
:104E8000012711E00D260DE00B260BE00A2609E0B4
:104E9000009401214A46504643460191294603F0B9
:104EA00075FA0646FF2F08D05846001D006820B14D
:104EB000006810B10146384688473046BDE8FE8F8D
:104EC000001C00202DE9FE4F82460D460CAF287ACB
:104ED0003C8898469146800928BF082056D208464B
:104EE00002A905F0E5FD012808BF01204ED0BDF85C
:104EF0000800DFF89CB042F602110026FF27401A96
:104F00002ED048F26F11401A34D0401E14D0401EEB
:104F100024D10CBBB8F1010F1CD199F800000A286C
:104F200008DBE9680870E9685C46601C884221D1AA
:104F3000022721E080261DE074B9B8F1010F09D1E4
:104F400099F80000E9680870E9685C468C4211D164
:104F5000012711E00D260DE00B260BE00A2609E0E3
:104F6000009401214A46504643460191294603F0E8
:104F70000DFA0646FF2F08D05846001D006820B1E4
:104F8000006810B10146384688473046BDE8FE8FBC
:104F90006C1E00202D492DE9F0410968EFF31188BE
:104FA00081F311882A4B195C4A1E01291A5449D1F0
:104FB0002849800045180E5C6F8836F07F0019D1B3
:104FC000F00911D24FF08054D4F8B801806901463D
:104FD0003846884704F5DC742068406B0146384643
:104FE00088470228F8D120E01D4850F827100020FB
:104FF00088471AE04FF08054D4F8B801006A01469F
:1050000038468847D4F8B801806A01463846884750
:10501000D4F8B801006B01463846884701210E4A92
:105020000E48116001688908FCD306F03F003F2854
:1050300001D0FFF7AFFF687800F03F003F2801D0B4
:10504000FFF7A8FF88F31188BDE8F0810CC50000C8
:10505000EC1900200CBF0000282008602820084020
:10506000041A0020BCB5074606F022FB00285AD0DF
:105070002E4C207840BB3FB306F01AFB10B3012042
:10508000682101F0E1FDF8B10920211D2071012204
:105090006B2005F0F7FC251DA0B13F2028702946A4
:1050A00001226C2005F0EEFC0021217050B1E11CC2
:1050B0001C20012205F0E6FC20B13A2029460122FD
:1050C00006F035FA06F0B4FCF8B2277040B380F071
:1050D000FF0020716821012001F0B6FD28B3211DD9
:1050E0006C20012205F0CEFC06F0A2FC247806F02C
:1050F000DFFAC4F38014B0B104F020F8A8B10120A5
:105100000C2101F0A1FD80B1002C0CBF002011206A
:10511000694601228DF800000A2005F0B3FC02E088
:1051200004F074F9BCBD06F083FCBCBD7C220020F9
:105130002DE9F04782460E467068DAF80810DAF872
:105140000450002401F1040810B9F06800284ED082
:10515000287801280FD106F0E9FDA96F39B1E96F70
:105160008E61EE6706F0DEFD0120BDE8F087AE67D8
:10517000EE6706F0D7FD06F0D9FD1E4F8146387860
:10518000012804D0042004F0FDFE012038704846B8
:1051900006F0C8FD05F12C094FF0FF31484606F036
:1051A000BDFDD8F8000006F091FD5046314602F0F2
:1051B00069F8D8F8000006F085FD287898B905F15F
:1051C00048004FF0FF3106F0A9FD06F0AFFD06469E
:1051D000387818B1042004F0D9FB3C70304606F052
:1051E000A1FD287A00B90124484606F083FD204637
:1051F000BDE8F087513D0020F0B54FF4F0204FF4AA
:105200008051ADF1140D02F0D5FC2A4D4FF4F02081
:105210001021AA1C01F0B2FE4FF4F83004216A46B6
:1052200003F0FFFA0098B0F1FF3F2CD04FF080560A
:1052300006F5EC7420681E4F006801210A460346FB
:1052400038469847D6F8D8014068012102463846CA
:1052500090474FF4F83005F04EFF4FF4F8363046E3
:10526000102101AA03F0DDFA38B101A8314610225D
:1052700005F032FF1036700CF1D020684068002134
:105280000246384690474FF4F8300068B0F1FF3FCF
:105290000CD0E88929898000890002468B18A3F583
:1052A000F833002BC8BFC91A034B984705B0F0BDAF
:1052B000004003403424002001F001001CB52D4CB7
:1052C000401E02D0401E44D01CBD06F0CFFB40095A
:1052D00031D32089FF2831D00120694604F092FCA7
:1052E000BDF8000010F07F0F18D0BDF8000020813D
:1052F000022002F09FF906F0DBF9A8B11E48006811
:1053000041F28831B1FBF0F006F044FD04F002FBFD
:10531000BDF8001041EA0020208105E0BDF8000042
:105320002081002002F086F904F108020120022108
:1053300001F076FD07E0FF20083420800120FF21E6
:10534000022205F067FE00201222014605F062FEEF
:105350001CBD02200DF1020104F054FC9DF8020076
:10536000410001EBC001E18004F1280003F036F9AF
:105370001CBDC046E420002010C500002DE9F0410E
:105380004568876816460C4606F0D0FC0346A86BB5
:105390003246214630B1184606F0C4FC4FF0FF30CB
:1053A000BDE8F081AA6329630024EC7718466C639A
:1053B00006F0B8FC06F0BAFC1E4E80463078012894
:1053C00004D0042004F0DEFD01203070404606F0D9
:1053D000A9FC1949086840F4007008603968886BB6
:1053E00040F4FA6088636878002818BF201C1ED13A
:1053F000696805F1900006F091FCB8B9AC633968B2
:10540000886B20F4FA60886306F090FC07463078D9
:1054100018B1042004F0BAFA3470384606F082FC61
:105420001022696B286BEA77401A2863686BBDE825
:10543000F081C046573D00203010004070B52C4E22
:105440002C4D012806D068BB31460020491C05F0D0
:10545000A1FD27E03146012005F09CFD344620786F
:10546000022817D0621C0020012103F00FF82868E1
:105470000A21002204F0FEFB28680F21002204F01C
:10548000F9FB606806F032FC28681521002204F060
:10549000F1FB07E006F0EAFA621C607001210020CF
:1054A00002F0F4FF31460878012820D134462868FC
:1054B0006178490834BF002201220A2104F0DAFB96
:1054C00028686178890834BF002201220F2104F086
:1054D000D1FB61786068C90807D206F007FC28682C
:1054E0001521002204F0C6FB70BD06F0F3FB70BD71
:1054F000B02200202C050020F0B52B4E06F12C0127
:1055000038C9ADF11C0D02AA38C20AC94FF0805744
:1055100082E80A0085684468D7F8D0112868C9680D
:105520008847296821488A6B10408863286840F2C0
:10553000F2711834416494F8240094F82520296805
:10554000C0100DEB8000806810434863684606F089
:10555000B5FB2279A179D7F8D001637906EB8202F5
:1055600006EB8101976856F8236022688B694168D1
:105570000C46286801993E433343A0470C490A1F53
:10558000106840F010001060086840F001000860EA
:10559000A87BFF2806D0E87BFF2803D0086840F4EA
:1055A0004040086007B0F0BD20C100000DF8FFFFCB
:1055B0003010004038B52D4C054600206908A4F194
:1055C0000104207009D300F0A3FC002808BF207854
:1055D00003D0207840F001002070A90809D302F020
:1055E00090F8002808BF207803D0207840F002000F
:1055F0002070290909D300F025FD002808BF207874
:1056000003D0207840F008002070E90809D303F0A7
:1056100070FA002808BF207803D0207840F00400FA
:105620002070690909D302F0C5FC002808BF207862
:1056300003D0207840F010002070A90909D303F0AE
:10564000C5FE002808BF207803D0207840F0200055
:105650002070E90909D306F05AF8002808BF20781D
:1056600003D0207840F04000207038BDC93C0020B5
:10567000F8B50D46EEB2290824BF27494D40274B07
:10568000B400DFF89CC0195900EA05020CEA0202D6
:1056900000F4E02C85EA0107BCF5E02F00EA0707DB
:1056A00021EA0001C7F3006742EA010201D1510E6D
:1056B00014D300F4E0210F4310D002F4E027B7F533
:1056C000A02707D0B7F5803704BF22F4003242F498
:1056D000A02203E022F4803242F4C0221A51114C7D
:1056E000C10D04D3C5F38052A4F180018A55000E88
:1056F00011D306F01BFB290E03D201220021B24078
:1057000002E00122B240114650342368934319430A
:10571000216006F007FBF8BD006000A00010084003
:10572000007F077F802002402DE9FE4F82460D4614
:105730000CAF287A3C8898469146800928BF0820FB
:1057400049D2084602A905F0B3F9012808BF012093
:1057500041D0BDF80800DFF884B042F602110026FF
:10576000FF27401A22D04AF2C031401A0BD0401E07
:105770001AD1BCB9B8F1010F12D199F80000E9684B
:10578000022708701EE06CB9B8F1080F08D149462D
:105790000A6858460E30496802600127416011E0EE
:1057A0000D260DE00B260BE00A2609E000940121EE
:1057B0004A46504643460191294602F0E7FD064617
:1057C000FF2F07D05846006820B1006810B101468D
:1057D000384688473046BDE8FE8FC046A81C0020EA
:1057E0002B482DE9F8430D469C4608AF9146696861
:1057F000BC883E884B78027809784FF0000842F662
:10580000232701EB0321C91B674628D0491E052920
:1058100017D9891F0CD0263933D1072E2ED8C6F1BF
:105820000701A14298BF8CB23618083631461FE0F6
:10583000B24223DB921BA242D8BF94B23C804068A4
:105840000BE0E86805F02AFF80B2B04216DB801B4F
:10585000A042D8BF84B23C80E868311809E0082E25
:105860000CD8C6F10801A14298BF8CB231180F3193
:105870003C804846224600F0FDFA06E04FF007085B
:1058800003E040464FF00A0838804046BDE8F88300
:105890001417002041F21C3010B5C5F20000046856
:1058A000B4F1FF3F08BF002405F0DAFE40F2844364
:1058B00046F25C01002242F2082E012040F2801CD8
:1058C000C4F26023C4F20C011A60C4F2043E086002
:1058D000C4F2283CCEF80000DCF8000038B140F2F9
:1058E0000010C4F2203000682046FBF790F944F223
:1058F0000402C4F203021068052142F24803C2F216
:105900000001C4F2030320F0030001431160196891
:105910004FF0000EC0F2391E6FF35B414EEA0100FA
:105920000421C4F2090118600868C0F3013001289D
:1059300009D10A684FF6FF70CFF6FC40104040F4E2
:1059400000320A60086010BD2DE9F04F09AFADF1DB
:105950001C0D924606903C880493D7F80880059168
:1059600097F80490039430B1081C04D0181C18BF99
:10597000B8F1000F01D1022038E01E48017800265E
:10598000354630E0069C04EB8504B4F800B04FF6D1
:10599000FF70584523D0A7780FB303990498059A50
:1059A00005F0E5FB0290D0B178080AD3CDF800905D
:1059B000CDF80480029B01215846524601F050F870
:1059C0000643A07880080AD3CDF80090CDF8048073
:1059D0002088029B5246022101F042F80643054806
:1059E00001786D1CEDB2A942CCDC304607B0BDE8B1
:1059F000F08FC0460C0E002029482DE9F84FD0F852
:105A00000090EFF3118589F31188264CA0680121DD
:105A100006F068F94FF0010A4FF0000806462168C9
:105A20006769A4F81CA02068A4F81E80791A321AAD
:105A30008A42A6EB07062DD385F311884546EF1958
:105A40005046394606F036F9761B0546B542F6D97A
:105A5000EFF3118B89F31188E08B012804D14046C4
:105A6000394606F027F90546B5F1FF3F06D0A16992
:105A7000AD1BA94238BF0D1CE91901E0A5697919D0
:105A8000284606F013F9A4F820A0A4F81C805D466F
:105A9000276001E0A4F81C8085F31188BDE8F88F29
:105AA0000CC500007801002008B50AA003F0AAFF89
:105AB00025480178012903D00DA003F0A3FF08BDFC
:105AC0000121417017A003F09DFF2048006806F0F7
:105AD00011F908BD53656E736F725461674F70742E
:105AE0005F636C6F636B48616E646C65720D0A0076
:105AF0005B5D5B5D5B5D4C696768743A3A73656ECC
:105B0000736F72436F6E66696720213D2053545F47
:105B10004346475F53454E534F525F454E41424CBB
:105B2000450D0A005B5D5B5D5B5D4C696768743ABF
:105B30003A73656E736F725265616453636865642E
:105B4000756C65640D0A00C0E02200202805002065
